{
  "contractName": "DDoSMitigation",
  "abi": [
    {
      "anonymous": false,
      "inputs": [
        {
          "indexed": true,
          "internalType": "address",
          "name": "user",
          "type": "address"
        },
        {
          "indexed": false,
          "internalType": "string",
          "name": "ip",
          "type": "string"
        },
        {
          "indexed": false,
          "internalType": "string",
          "name": "message",
          "type": "string"
        },
        {
          "indexed": false,
          "internalType": "uint256",
          "name": "timestamp",
          "type": "uint256"
        }
      ],
      "name": "AddressBlocked",
      "type": "event"
    },
    {
      "inputs": [
        {
          "internalType": "address",
          "name": "",
          "type": "address"
        }
      ],
      "name": "attackers",
      "outputs": [
        {
          "internalType": "string",
          "name": "ip",
          "type": "string"
        },
        {
          "internalType": "string",
          "name": "message",
          "type": "string"
        },
        {
          "internalType": "uint256",
          "name": "timestamp",
          "type": "uint256"
        }
      ],
      "stateMutability": "view",
      "type": "function"
    },
    {
      "inputs": [],
      "name": "blockDuration",
      "outputs": [
        {
          "internalType": "uint256",
          "name": "",
          "type": "uint256"
        }
      ],
      "stateMutability": "view",
      "type": "function"
    },
    {
      "inputs": [
        {
          "internalType": "address",
          "name": "",
          "type": "address"
        }
      ],
      "name": "blockedAddresses",
      "outputs": [
        {
          "internalType": "bool",
          "name": "",
          "type": "bool"
        }
      ],
      "stateMutability": "view",
      "type": "function"
    },
    {
      "inputs": [],
      "name": "maxRequestsPerMinute",
      "outputs": [
        {
          "internalType": "uint256",
          "name": "",
          "type": "uint256"
        }
      ],
      "stateMutability": "view",
      "type": "function"
    },
    {
      "inputs": [
        {
          "internalType": "address",
          "name": "",
          "type": "address"
        }
      ],
      "name": "requestLogs",
      "outputs": [
        {
          "internalType": "uint256",
          "name": "requestCount",
          "type": "uint256"
        },
        {
          "internalType": "uint256",
          "name": "lastRequestTime",
          "type": "uint256"
        }
      ],
      "stateMutability": "view",
      "type": "function"
    },
    {
      "inputs": [
        {
          "internalType": "string",
          "name": "_ip",
          "type": "string"
        },
        {
          "internalType": "string",
          "name": "_message",
          "type": "string"
        }
      ],
      "name": "handleRequest",
      "outputs": [],
      "stateMutability": "nonpayable",
      "type": "function"
    },
    {
      "inputs": [
        {
          "internalType": "address",
          "name": "user",
          "type": "address"
        }
      ],
      "name": "unblockAddress",
      "outputs": [],
      "stateMutability": "nonpayable",
      "type": "function"
    },
    {
      "inputs": [
        {
          "internalType": "address",
          "name": "attacker",
          "type": "address"
        }
      ],
      "name": "getAttackerDetails",
      "outputs": [
        {
          "internalType": "string",
          "name": "",
          "type": "string"
        },
        {
          "internalType": "string",
          "name": "",
          "type": "string"
        },
        {
          "internalType": "uint256",
          "name": "",
          "type": "uint256"
        }
      ],
      "stateMutability": "view",
      "type": "function"
    }
  ],
  "bytecode": "0x6080604052600a60035561025860045534801561001a575f80fd5b50611035806100285f395ff3fe608060405234801561000f575f80fd5b5060043610610086575f3560e01c80634ceb8e9f116100595780634ceb8e9f146101145780634f93208a1461014557806391d1ac2914610175578063c97c93b2146101a757610086565b8063186d9d881461008a578063201e908e146100a65780632d54daf8146100c45780634a84c49e146100f6575b5f80fd5b6100a4600480360381019061009f9190610874565b6101c3565b005b6100ae61021a565b6040516100bb91906108b7565b60405180910390f35b6100de60048036038101906100d99190610874565b610220565b6040516100ed9392919061095a565b60405180910390f35b6100fe610352565b60405161010b91906108b7565b60405180910390f35b61012e60048036038101906101299190610874565b610358565b60405161013c92919061099d565b60405180910390f35b61015f600480360381019061015a9190610874565b610377565b60405161016c91906109de565b60405180910390f35b61018f600480360381019061018a9190610874565b610394565b60405161019e9392919061095a565b60405180910390f35b6101c160048036038101906101bc9190610b23565b6105b1565b005b5f60015f8373ffffffffffffffffffffffffffffffffffffffff1673ffffffffffffffffffffffffffffffffffffffff1681526020019081526020015f205f6101000a81548160ff02191690831515021790555050565b60045481565b6002602052805f5260405f205f91509050805f01805461023f90610bc6565b80601f016020809104026020016040519081016040528092919081815260200182805461026b90610bc6565b80156102b65780601f1061028d576101008083540402835291602001916102b6565b820191905f5260205f20905b81548152906001019060200180831161029957829003601f168201915b5050505050908060010180546102cb90610bc6565b80601f01602080910402602001604051908101604052809291908181526020018280546102f790610bc6565b80156103425780601f1061031957610100808354040283529160200191610342565b820191905f5260205f20905b81548152906001019060200180831161032557829003601f168201915b5050505050908060020154905083565b60035481565b5f602052805f5260405f205f91509050805f0154908060010154905082565b6001602052805f5260405f205f915054906101000a900460ff1681565b6060805f60015f8573ffffffffffffffffffffffffffffffffffffffff1673ffffffffffffffffffffffffffffffffffffffff1681526020019081526020015f205f9054906101000a900460ff16610421576040517f08c379a000000000000000000000000000000000000000000000000000000000815260040161041890610c40565b60405180910390fd5b5f60025f8673ffffffffffffffffffffffffffffffffffffffff1673ffffffffffffffffffffffffffffffffffffffff1681526020019081526020015f206040518060600160405290815f8201805461047990610bc6565b80601f01602080910402602001604051908101604052809291908181526020018280546104a590610bc6565b80156104f05780601f106104c7576101008083540402835291602001916104f0565b820191905f5260205f20905b8154815290600101906020018083116104d357829003601f168201915b5050505050815260200160018201805461050990610bc6565b80601f016020809104026020016040519081016040528092919081815260200182805461053590610bc6565b80156105805780601f1061055757610100808354040283529160200191610580565b820191905f5260205f20905b81548152906001019060200180831161056357829003601f168201915b505050505081526020016002820154815250509050805f015181602001518260400151935093509350509193909250565b60015f3373ffffffffffffffffffffffffffffffffffffffff1673ffffffffffffffffffffffffffffffffffffffff1681526020019081526020015f205f9054906101000a900460ff161561063b576040517f08c379a000000000000000000000000000000000000000000000000000000000815260040161063290610cce565b60405180910390fd5b5f805f3373ffffffffffffffffffffffffffffffffffffffff1673ffffffffffffffffffffffffffffffffffffffff1681526020019081526020015f2090505f429050603c826001015461068f9190610d19565b81111561069f575f825f01819055505b808260010181905550815f015f8154809291906106bb90610d4c565b9190505550600354825f01541115610803576001805f3373ffffffffffffffffffffffffffffffffffffffff1673ffffffffffffffffffffffffffffffffffffffff1681526020019081526020015f205f6101000a81548160ff02191690831515021790555060405180606001604052808581526020018481526020018281525060025f3373ffffffffffffffffffffffffffffffffffffffff1673ffffffffffffffffffffffffffffffffffffffff1681526020019081526020015f205f820151815f01908161078c9190610f30565b5060208201518160010190816107a29190610f30565b50604082015181600201559050503373ffffffffffffffffffffffffffffffffffffffff167fadb24244ca312383b0f34a7bae0896426ee451e543d99ac74ce14d7358ac620e8585846040516107fa9392919061095a565b60405180910390a25b50505050565b5f604051905090565b5f80fd5b5f80fd5b5f73ffffffffffffffffffffffffffffffffffffffff82169050919050565b5f6108438261081a565b9050919050565b61085381610839565b811461085d575f80fd5b50565b5f8135905061086e8161084a565b92915050565b5f6020828403121561088957610888610812565b5b5f61089684828501610860565b91505092915050565b5f819050919050565b6108b18161089f565b82525050565b5f6020820190506108ca5f8301846108a8565b92915050565b5f81519050919050565b5f82825260208201905092915050565b5f5b838110156109075780820151818401526020810190506108ec565b5f8484015250505050565b5f601f19601f8301169050919050565b5f61092c826108d0565b61093681856108da565b93506109468185602086016108ea565b61094f81610912565b840191505092915050565b5f6060820190508181035f8301526109728186610922565b905081810360208301526109868185610922565b905061099560408301846108a8565b949350505050565b5f6040820190506109b05f8301856108a8565b6109bd60208301846108a8565b9392505050565b5f8115159050919050565b6109d8816109c4565b82525050565b5f6020820190506109f15f8301846109cf565b92915050565b5f80fd5b5f80fd5b7f4e487b71000000000000000000000000000000000000000000000000000000005f52604160045260245ffd5b610a3582610912565b810181811067ffffffffffffffff82111715610a5457610a536109ff565b5b80604052505050565b5f610a66610809565b9050610a728282610a2c565b919050565b5f67ffffffffffffffff821115610a9157610a906109ff565b5b610a9a82610912565b9050602081019050919050565b828183375f83830152505050565b5f610ac7610ac284610a77565b610a5d565b905082815260208101848484011115610ae357610ae26109fb565b5b610aee848285610aa7565b509392505050565b5f82601f830112610b0a57610b096109f7565b5b8135610b1a848260208601610ab5565b91505092915050565b5f8060408385031215610b3957610b38610812565b5b5f83013567ffffffffffffffff811115610b5657610b55610816565b5b610b6285828601610af6565b925050602083013567ffffffffffffffff811115610b8357610b82610816565b5b610b8f85828601610af6565b9150509250929050565b7f4e487b71000000000000000000000000000000000000000000000000000000005f52602260045260245ffd5b5f6002820490506001821680610bdd57607f821691505b602082108103610bf057610bef610b99565b5b50919050565b7f41646472657373206973206e6f7420626c6f636b6564000000000000000000005f82015250565b5f610c2a6016836108da565b9150610c3582610bf6565b602082019050919050565b5f6020820190508181035f830152610c5781610c1e565b9050919050565b7f596f7572206164647265737320697320626c6f636b65642064756520746f20445f8201527f446f532061747461636b00000000000000000000000000000000000000000000602082015250565b5f610cb8602a836108da565b9150610cc382610c5e565b604082019050919050565b5f6020820190508181035f830152610ce581610cac565b9050919050565b7f4e487b71000000000000000000000000000000000000000000000000000000005f52601160045260245ffd5b5f610d238261089f565b9150610d2e8361089f565b9250828201905080821115610d4657610d45610cec565b5b92915050565b5f610d568261089f565b91507fffffffffffffffffffffffffffffffffffffffffffffffffffffffffffffffff8203610d8857610d87610cec565b5b600182019050919050565b5f819050815f5260205f209050919050565b5f6020601f8301049050919050565b5f82821b905092915050565b5f60088302610def7fffffffffffffffffffffffffffffffffffffffffffffffffffffffffffffffff82610db4565b610df98683610db4565b95508019841693508086168417925050509392505050565b5f819050919050565b5f610e34610e2f610e2a8461089f565b610e11565b61089f565b9050919050565b5f819050919050565b610e4d83610e1a565b610e61610e5982610e3b565b848454610dc0565b825550505050565b5f90565b610e75610e69565b610e80818484610e44565b505050565b5b81811015610ea357610e985f82610e6d565b600181019050610e86565b5050565b601f821115610ee857610eb981610d93565b610ec284610da5565b81016020851015610ed1578190505b610ee5610edd85610da5565b830182610e85565b50505b505050565b5f82821c905092915050565b5f610f085f1984600802610eed565b1980831691505092915050565b5f610f208383610ef9565b9150826002028217905092915050565b610f39826108d0565b67ffffffffffffffff811115610f5257610f516109ff565b5b610f5c8254610bc6565b610f67828285610ea7565b5f60209050601f831160018114610f98575f8415610f86578287015190505b610f908582610f15565b865550610ff7565b601f198416610fa686610d93565b5f5b82811015610fcd57848901518255600182019150602085019450602081019050610fa8565b86831015610fea5784890151610fe6601f891682610ef9565b8355505b6001600288020188555050505b50505050505056fea26469706673582212204b5bf2e01b784ab5b10c55453d013907ae6e37cf41efb405d24a0d7fdd8fbcb864736f6c63430008150033",
  "immutableReferences": {},
  "source": "// SPDX-License-Identifier: MIT\r\npragma solidity ^0.8.0;\r\n\r\ncontract DDoSMitigation {\r\n    struct RequestLog {\r\n        uint256 requestCount;\r\n        uint256 lastRequestTime;\r\n    }\r\n\r\n    struct Attacker {\r\n        string ip;\r\n        string message;\r\n        uint256 timestamp;\r\n    }\r\n\r\n    mapping(address => RequestLog) public requestLogs;\r\n    mapping(address => bool) public blockedAddresses;\r\n    mapping(address => Attacker) public attackers;  // Store attacker details\r\n\r\n    uint256 public maxRequestsPerMinute = 10;\r\n    uint256 public blockDuration = 10 minutes;\r\n\r\n    // Event for logging blocked addresses\r\n    event AddressBlocked(address indexed user, string ip, string message, uint256 timestamp);\r\n\r\n    // Check if address is blocked\r\n    modifier notBlocked() {\r\n        require(!blockedAddresses[msg.sender], \"Your address is blocked due to DDoS attack\");\r\n        _;\r\n    }\r\n\r\n    // Handle a user request (e.g., a message request)\r\n    function handleRequest(string memory _ip, string memory _message) external notBlocked {\r\n        RequestLog storage log = requestLogs[msg.sender];\r\n\r\n        uint256 currentTime = block.timestamp;\r\n\r\n        // Reset request count if last request was more than 1 minute ago\r\n        if (currentTime > log.lastRequestTime + 1 minutes) {\r\n            log.requestCount = 0;\r\n        }\r\n\r\n        log.lastRequestTime = currentTime;\r\n        log.requestCount++;\r\n\r\n        if (log.requestCount > maxRequestsPerMinute) {\r\n            // Block the address if rate limit exceeded\r\n            blockedAddresses[msg.sender] = true;\r\n            attackers[msg.sender] = Attacker(_ip, _message, currentTime);\r\n            emit AddressBlocked(msg.sender, _ip, _message, currentTime);\r\n        }\r\n    }\r\n\r\n    // Function to unblock an address (could be called by admin)\r\n    function unblockAddress(address user) external {\r\n        blockedAddresses[user] = false;\r\n    }\r\n\r\n    // Fetch attacker details\r\n    function getAttackerDetails(address attacker) public view returns (string memory, string memory, uint256) {\r\n        require(blockedAddresses[attacker], \"Address is not blocked\");\r\n        Attacker memory att = attackers[attacker];\r\n        return (att.ip, att.message, att.timestamp);\r\n    }\r\n}\r\n",
  "sourcePath": "D:\\Project 2\\contracts\\DDoS_Sol.sol",
  "compiler": {
    "name": "solc",
    "version": "0.8.21+commit.d9974bed.Emscripten.clang"
  },
  "schemaVersion": "3.4.16",
  "updatedAt": "2024-10-22T06:07:33.815Z",
  "devdoc": {
    "kind": "dev",
    "methods": {},
    "version": 1
  },
  "userdoc": {
    "kind": "user",
    "methods": {},
    "version": 1
  }
}