{
  "contractName": "MessageStorage",
  "abi": [
    {
      "anonymous": false,
      "inputs": [
        {
          "indexed": true,
          "internalType": "address",
          "name": "sender",
          "type": "address"
        },
        {
          "indexed": false,
          "internalType": "string",
          "name": "content",
          "type": "string"
        },
        {
          "indexed": false,
          "internalType": "uint256",
          "name": "timestamp",
          "type": "uint256"
        }
      ],
      "name": "MessageStored",
      "type": "event"
    },
    {
      "inputs": [
        {
          "internalType": "uint256",
          "name": "",
          "type": "uint256"
        }
      ],
      "name": "messages",
      "outputs": [
        {
          "internalType": "address",
          "name": "sender",
          "type": "address"
        },
        {
          "internalType": "string",
          "name": "content",
          "type": "string"
        },
        {
          "internalType": "uint256",
          "name": "timestamp",
          "type": "uint256"
        }
      ],
      "stateMutability": "view",
      "type": "function",
      "constant": true
    },
    {
      "inputs": [
        {
          "internalType": "string",
          "name": "_content",
          "type": "string"
        }
      ],
      "name": "storeMessage",
      "outputs": [],
      "stateMutability": "nonpayable",
      "type": "function"
    },
    {
      "inputs": [
        {
          "internalType": "uint256",
          "name": "_index",
          "type": "uint256"
        }
      ],
      "name": "getMessage",
      "outputs": [
        {
          "internalType": "address",
          "name": "",
          "type": "address"
        },
        {
          "internalType": "string",
          "name": "",
          "type": "string"
        },
        {
          "internalType": "uint256",
          "name": "",
          "type": "uint256"
        }
      ],
      "stateMutability": "view",
      "type": "function",
      "constant": true
    },
    {
      "inputs": [],
      "name": "getAllMessages",
      "outputs": [
        {
          "components": [
            {
              "internalType": "address",
              "name": "sender",
              "type": "address"
            },
            {
              "internalType": "string",
              "name": "content",
              "type": "string"
            },
            {
              "internalType": "uint256",
              "name": "timestamp",
              "type": "uint256"
            }
          ],
          "internalType": "struct MessageStorage.Message[]",
          "name": "",
          "type": "tuple[]"
        }
      ],
      "stateMutability": "view",
      "type": "function",
      "constant": true
    }
  ],
  "bytecode": "0x608060405234801561001057600080fd5b50610c26806100206000396000f3fe608060405234801561001057600080fd5b506004361061004c5760003560e01c80630d80fefd1461005157806353f5e3801461008357806386f79edb146100a1578063d4e36ba7146100d3575b600080fd5b61006b60048036038101906100669190610753565b6100ef565b60405161007a93929190610943565b60405180910390f35b61008b6101d1565b6040516100989190610981565b60405180910390f35b6100bb60048036038101906100b69190610753565b610322565b6040516100ca93929190610943565b60405180910390f35b6100ed60048036038101906100e89190610712565b6104d3565b005b600081815481106100ff57600080fd5b90600052602060002090600302016000915090508060000160009054906101000a900473ffffffffffffffffffffffffffffffffffffffff169080600101805461014890610b38565b80601f016020809104026020016040519081016040528092919081815260200182805461017490610b38565b80156101c15780601f10610196576101008083540402835291602001916101c1565b820191906000526020600020905b8154815290600101906020018083116101a457829003601f168201915b5050505050908060020154905083565b60606000805480602002602001604051908101604052809291908181526020016000905b8282101561031957838290600052602060002090600302016040518060600160405290816000820160009054906101000a900473ffffffffffffffffffffffffffffffffffffffff1673ffffffffffffffffffffffffffffffffffffffff1673ffffffffffffffffffffffffffffffffffffffff16815260200160018201805461027e90610b38565b80601f01602080910402602001604051908101604052809291908181526020018280546102aa90610b38565b80156102f75780601f106102cc576101008083540402835291602001916102f7565b820191906000526020600020905b8154815290600101906020018083116102da57829003601f168201915b50505050508152602001600282015481525050815260200190600101906101f5565b50505050905090565b6000606060008080549050841061036e576040517f08c379a0000000000000000000000000000000000000000000000000000000008152600401610365906109d3565b60405180910390fd5b60008085815481106103a9577f4e487b7100000000000000000000000000000000000000000000000000000000600052603260045260246000fd5b90600052602060002090600302016040518060600160405290816000820160009054906101000a900473ffffffffffffffffffffffffffffffffffffffff1673ffffffffffffffffffffffffffffffffffffffff1673ffffffffffffffffffffffffffffffffffffffff16815260200160018201805461042890610b38565b80601f016020809104026020016040519081016040528092919081815260200182805461045490610b38565b80156104a15780601f10610476576101008083540402835291602001916104a1565b820191906000526020600020905b81548152906001019060200180831161048457829003601f168201915b505050505081526020016002820154815250509050806000015181602001518260400151935093509350509193909250565b600060405180606001604052803373ffffffffffffffffffffffffffffffffffffffff16815260200183815260200142815250908060018154018082558091505060019003906000526020600020906003020160009091909190915060008201518160000160006101000a81548173ffffffffffffffffffffffffffffffffffffffff021916908373ffffffffffffffffffffffffffffffffffffffff16021790555060208201518160010190805190602001906105929291906105f2565b506040820151816002015550503373ffffffffffffffffffffffffffffffffffffffff167fbff9c49b99e31a4e0bf388052eec92748cc1546aa61408a68e5a3f870809965382426040516105e79291906109a3565b60405180910390a250565b8280546105fe90610b38565b90600052602060002090601f0160209004810192826106205760008555610667565b82601f1061063957805160ff1916838001178555610667565b82800160010185558215610667579182015b8281111561066657825182559160200191906001019061064b565b5b5090506106749190610678565b5090565b5b80821115610691576000816000905550600101610679565b5090565b60006106a86106a384610a24565b6109f3565b9050828152602081018484840111156106c057600080fd5b6106cb848285610af6565b509392505050565b600082601f8301126106e457600080fd5b81356106f4848260208601610695565b91505092915050565b60008135905061070c81610bd9565b92915050565b60006020828403121561072457600080fd5b600082013567ffffffffffffffff81111561073e57600080fd5b61074a848285016106d3565b91505092915050565b60006020828403121561076557600080fd5b6000610773848285016106fd565b91505092915050565b600061078883836108d5565b905092915050565b61079981610aba565b82525050565b6107a881610aba565b82525050565b60006107b982610a64565b6107c38185610a87565b9350836020820285016107d585610a54565b8060005b8581101561081157848403895281516107f2858261077c565b94506107fd83610a7a565b925060208a019950506001810190506107d9565b50829750879550505050505092915050565b600061082e82610a6f565b6108388185610a98565b9350610848818560208601610b05565b61085181610bc8565b840191505092915050565b600061086782610a6f565b6108718185610aa9565b9350610881818560208601610b05565b61088a81610bc8565b840191505092915050565b60006108a2600d83610aa9565b91507f496e76616c696420696e646578000000000000000000000000000000000000006000830152602082019050919050565b60006060830160008301516108ed6000860182610790565b50602083015184820360208601526109058282610823565b915050604083015161091a6040860182610925565b508091505092915050565b61092e81610aec565b82525050565b61093d81610aec565b82525050565b6000606082019050610958600083018661079f565b818103602083015261096a818561085c565b90506109796040830184610934565b949350505050565b6000602082019050818103600083015261099b81846107ae565b905092915050565b600060408201905081810360008301526109bd818561085c565b90506109cc6020830184610934565b9392505050565b600060208201905081810360008301526109ec81610895565b9050919050565b6000604051905081810181811067ffffffffffffffff82111715610a1a57610a19610b99565b5b8060405250919050565b600067ffffffffffffffff821115610a3f57610a3e610b99565b5b601f19601f8301169050602081019050919050565b6000819050602082019050919050565b600081519050919050565b600081519050919050565b6000602082019050919050565b600082825260208201905092915050565b600082825260208201905092915050565b600082825260208201905092915050565b6000610ac582610acc565b9050919050565b600073ffffffffffffffffffffffffffffffffffffffff82169050919050565b6000819050919050565b82818337600083830152505050565b60005b83811015610b23578082015181840152602081019050610b08565b83811115610b32576000848401525b50505050565b60006002820490506001821680610b5057607f821691505b60208210811415610b6457610b63610b6a565b5b50919050565b7f4e487b7100000000000000000000000000000000000000000000000000000000600052602260045260246000fd5b7f4e487b7100000000000000000000000000000000000000000000000000000000600052604160045260246000fd5b6000601f19601f8301169050919050565b610be281610aec565b8114610bed57600080fd5b5056fea26469706673582212200a465271b03587b259a9fbdbb4b8c2633e5086b207e9b15651fd3ab236ab4dec64736f6c63430008000033",
  "immutableReferences": {},
  "source": "// SPDX-License-Identifier: MIT\r\npragma solidity ^0.8.0;\r\n\r\ncontract MessageStorage {\r\n    struct Message {\r\n        address sender;\r\n        string content;\r\n        uint256 timestamp;\r\n    }\r\n\r\n    Message[] public messages;\r\n\r\n    event MessageStored(address indexed sender, string content, uint256 timestamp);\r\n\r\n    function storeMessage(string memory _content) public {\r\n        messages.push(Message(msg.sender, _content, block.timestamp));\r\n        emit MessageStored(msg.sender, _content, block.timestamp);\r\n    }\r\n\r\n    function getMessage(uint256 _index) public view returns (address, string memory, uint256) {\r\n        require(_index < messages.length, \"Invalid index\");\r\n        Message memory message = messages[_index];\r\n        return (message.sender, message.content, message.timestamp);\r\n    }\r\n\r\n    function getAllMessages() public view returns (Message[] memory) {\r\n        return messages;\r\n    }\r\n}\r\n",
  "sourcePath": "D:\\Live in Lab\\Project 2\\contracts\\MessageStorage.sol",
  "compiler": {
    "name": "solc",
    "version": "0.8.0+commit.c7dfd78e.Emscripten.clang"
  },
  "schemaVersion": "3.4.16",
  "updatedAt": "2024-11-23T13:41:12.719Z",
  "networkType": "ethereum",
  "devdoc": {
    "kind": "dev",
    "methods": {},
    "version": 1
  },
  "userdoc": {
    "kind": "user",
    "methods": {},
    "version": 1
  }
}